:020000041000EA
:1000000000B5324B212058609868022188439860DF
:10001000D860186158612E4B002199600221596106
:100020000121F02299502B49196001219960352056
:1000300000F044F80222904214D00621196600F024
:1000400034F8196E01211966002018661A6600F04E
:100050002CF8196E196E196E052000F02FF8012189
:100060000842F9D1002199601B49196000215960AB
:100070001A491B48016001219960EB211966A021F2
:10008000196600F012F800219960164914480160C1
:100090000121996001BC002800D000471248134993
:1000A000086003C880F30888084703B5996A0420EC
:1000B0000142FBD001200142F8D103BD02B5186610
:1000C0001866FFF7F2FF186E186E02BD00000240BE
:1000D000000000180000070000035F00212200005C
:1000E000F4000018222000A00001001008ED00E03C
:1000F00000000000000000000000000074B24E7A12
:1001000000200420F7010010C3010010C5010010F9
:10011000C1010010C1010010C1010010C101001097
:10012000C1010010C1010010C1010010C701001081
:10013000C1010010C1010010C9010010CB01001065
:10014000CD010010CD010010CD010010CD01001037
:10015000CD010010CD010010CD010010CD01001027
:10016000CD010010CD010010CD010010CD01001017
:10017000CD010010CD010010CD010010CD01001007
:10018000CD010010CD010010CD010010CD010010F7
:10019000CD010010CD010010CD010010CD010010E7
:1001A000CD010010CD010010CD010010CD010010D7
:1001B000CD010010CD010010CD010010CD010010C7
:1001C00000BE00BE00BE00BE00BE00BEEFF3058054
:1001D000103800BEF2EB8871684F0510944F05107F
:1001E0003802001090A31AE71E481F49086006C88D
:1001F00081F3088810471D480068002801D019487D
:10020000F3E70DA40ECC002902D000F012F8F9E7B4
:100210001749184A002000E001C19142FCD116495B
:100220008847164988471649884700BEFDE701C937
:1002300001C29A42FBD37047944F0510E0000020A2
:10024000E017002094660510000004200000042040
:100250009466051000100420001004200000000027
:10026000704700000000000008ED00E0000000D032
:10027000E017002094FE02208D4D00102103001095
:10028000854D0010F8B5C0460448054B10B58342B3
:1002900003D0044B002B00D0984710BDE01700207E
:1002A000E01700200000000006480749091A8B10DB
:1002B000C90FC91810B5491003D0044B002B00D04A
:1002C000984710BDE0170020E01700200000000054
:1002D00010B5074C2378002B09D1FFF7D5FF054B4C
:1002E000002B02D0044800E000BF0123237010BDA2
:1002F000081B00200000000004B30110054B10B5DE
:10030000002B03D00449054800E000BFFFF7CCFFF5
:1003100010BDC046000000000C1B002004B30110FB
:1003200070B58CB004F064FE14F060FA00284AD175
:1003300014F0F8F9264D27492800274B274A14F0D6
:10034000FFF9041E3AD100F0A7F92900244804F06F
:100350002BFF032580222300224900951201224809
:10036000019409F037F880222300204900951201FA
:100370001F48019409F02EF8012380221D490093A3
:10038000D200230003AD1C48019409F023F82A0091
:100390001A4B43CB43C203CB03C20D22210008A852
:1003A00003F01AF91648230022002900006808F01B
:1003B0001BFB09F01BF920000CB070BD114804F0C4
:1003C0006BFE0124F7E7104804F066FE0124F2E713
:1003D00030B3011024B30110307500000400400058
:1003E0005CB3011074B301105506001088B30110FE
:1003F0000D04001098B301105D0C001060D10110C5
:100400002C1E00203CB3011008B30110F0B5DE46ED
:1004100057464E464546E0B589B004F0E9FD7A48B6
:1004200004F03AFE112000F0E9FED02480232406D7
:100430009B0263621220A36100F0E0FE8023DB02D6
:1004400063627249A361724818F078FC714C020033
:100450000D2320006E4919F011FD002800D1CFE0D6
:10046000F0230122200006A919F0D4FD002808DDA0
:10047000FF21069A079B114028290FD0664804F0F7
:100480000BFE664804F008FE002009F03FF809B0B2
:10049000F0BCBB46B246A946A046F0BD60496148E3
:1004A00088460CC104F080FE01225F4B1A705F4B3E
:1004B00099465F4B9B465F4B03935F4B04935F4BA7
:1004C00005935F4B9A46200019F08AFD00286DD0F5
:1004D000CC21200019F058FD4421200019F054FDD2
:1004E000C820800009F0BAF9200019F079FD002831
:1004F0005CD05521200019F047FD002520264746F5
:1005000007E079682000D940083519F03DFD402DFD
:100510000ED02B00203BF4D57B683968721B9340CA
:10052000E94020001943083519F02EFD402DF0D187
:10053000BE21200019F028FD200019F039FD05002A
:10054000200019F035FD0002284300B2B84600280B
:100550002CD002F059FFF621890502F016FF4B4618
:100560001860051C02F0A6FF0F0083210600C905D4
:10057000281C02F00AFF02F069FF00B2009032006E
:100580003B00584604F010FE2E49281C02F02CFFB8
:1005900000281ED0D02380221B0692029A6180225E
:1005A000D20203985A6104F077FD0DE0504604F042
:1005B00073FD4A46244B1360D02380221B0692020F
:1005C0005A618022D2025A61FA20800009F046F96D
:1005D00079E71E49281C02F00DFFD02380221B065C
:1005E00092025A618022D202002804D004989A61B3
:1005F00004F052FDE8E705985A6104F04DFDE3E789
:10060000134804F049FD3FE79CB3011084D1011069
:100610000000205088D3002018B4011040B401100D
:10062000B0190020F0B301108DFE022058110020F7
:100630005CB4011080B40110A4B40110C8B401105E
:10064000DCB401100000D0410000FEC20000E04117
:10065000C0B30110F8B50E2000F0D0FDD0248023E7
:100660000125DB012406002201210E20A36200F0F7
:100670003FFD074F074E2900636830009B0B9943ED
:10068000397004F091FD642009F0E8F8F3E7C04602
:1006900080FE0220A4CD0110F0B5DE4657464E463E
:1006A0004546E0B5FE4D85B02800FE4919F0B4FB83
:1006B0000321042000F002FD0321052000F0FEFCD0
:1006C00000220121042000F013FD0F24002201214B
:1006D000052000F00DFD08236C44994623709626F2
:1006E000002300279846B6002200009327210133FB
:1006F000280019F0B9FB3000390001F0D7FD0C23B8
:100700009B46237043462200009327210133280093
:1007100019F0AAFB3000390001F0C8FD4B462370E8
:1007200043462200009327210133280019F09CFB47
:100730003000390001F0BAFD38239A462370434651
:100740002200009327210133280019F08DFB30008F
:10075000390001F0ABFD42463C23272123702800DD
:1007600000923B3B220019F07FFB3000390001F082
:100770009DFD52462270424601230092272122000D
:10078000280019F071FB3000390001F08FFD4A4656
:10079000227042460123009227212200280019F0EE
:1007A00063FB3000390001F081FD5A462270424659
:1007B0000123009227212200280019F055FB300068
:1007C000390001F073FD4A4622704246012300922F
:1007D00027212200280019F047FB3000390001F0E2
:1007E00065FD5246227042460123009227212200D5
:1007F000280019F039FB3000390001F057FD42465E
:100800003C2327212370280000923B3B220019F053
:100810002BFB3000390001F049FD52462270424660
:100820000123009227212200280019F01DFB30002F
:10083000390001F03BFD4A462270424601230092F6
:1008400027212200280019F00FFB3000390001F0A9
:100850002DFD5A4622704246012300922721220094
:10086000280019F001FB3000390001F01FFD4A4655
:10087000227042460123009227212200280019F00D
:10088000F3FA3000390001F011FD52462270424661
:100890000123009227212200280019F0E5FA3000F8
:1008A000390001F003FD3C232370434622000093EE
:1008B00027210133280019F0D7FA3000390001F060
:1008C000F5FC534623704346220000932721013351
:1008D000280019F0C9FA3000390001F0E7FC4B4656
:1008E000237043462200009327210133280019F08A
:1008F000BBFA3000390001F0D9FC5B462370434657
:100900002200009327210133280019F0ADFA3000AE
:10091000390001F0CBFC4B46237043462200009384
:1009200027210133280019F09FFA3000390001F027
:10093000BDFC28239A4623704346220000932721BA
:100940000133280019F090FA3000390001F0AEFCB4
:1009500042462C2327212370280000922B3B2200A3
:1009600019F082FA3000390001F0A0FC52462270E2
:1009700042460123009227212200280019F074FA30
:100980003000390001F092FC4A46227042460123B1
:10099000009227212200280019F066FA3000390061
:1009A00001F084FC5A46227042460123009227211E
:1009B0002200280019F058FA3000390001F076FCC6
:1009C0004A46227042460123009227212200280035
:1009D00019F04AFA3000390001F068FC41466822FB
:1009E00001232270280022000091273119F03CFADF
:1009F0003000390001F05AFC41466C23220023707C
:100A0000280000916B3B273119F02EFA3000390095
:100A100001F04CFC682222704246012300922721FB
:100A20002200280019F020FA3000390001F03EFCC5
:100A300052462270424601230092272122002800BC
:100A400019F012FA3000390001F030FC2C23237029
:100A500043462200009327210133280019F004FAAD
:100A60003000390001F022FC534623704346220037
:100A7000009327210133280019F0F6F930003900DE
:100A800001F014FC882323709A4643462200009309
:100A900027210133280019F0E7F9300004E0C046AF
:100AA00090120020A0860100390001F0FFFB8C238A
:100AB000237043462200009327210133280019F0B8
:100AC000D3F93000390001F0F1FB5346237043465F
:100AD0002200009327210133280019F0C5F93000C6
:100AE000390001F0E3FB4B4623704346220000939C
:100AF00027210133280019F0B7F93000390001F03F
:100B0000D5FB5B4623704346220000932721013327
:100B1000280019F0A9F93000390001F0C7FB4B4655
:100B2000237043462200009327210133280019F047
:100B30009BF93000390001F0B9FBC82323709A46B5
:100B400043462200009327210133280019F08CF935
:100B50003000390001F0AAFBCC2323704346220069
:100B6000009327210133280019F07EF93000390065
:100B700001F09CFB5346237043462200009327213B
:100B80000133280019F070F93000390001F08EFBB4
:100B90004B4623704346220000932721013328004F
:100BA00019F062F93000390001F080FB5B462370D8
:100BB00043462200009327210133280019F054F9FD
:100BC0003000390001F072FB4B462370434622008F
:100BD000009327210133280019F046F9300039002D
:100BE00001F064FB182323709946434622000093CA
:100BF00027210133280019F037F93000390001F0BE
:100C000055FB1C2323704346220000932721013308
:100C1000280019F029F93000390001F047FB4B4654
:100C2000237043462200009327210133280019F046
:100C30001BF93000390001F039FB0022212104208A
:100C400007F07EFE044B186005B0F0BCBB46B24610
:100C5000A946A046F0BDC0462C1E0020F0B5DE46D9
:100C600057464E464546E0B5D74B91B09B4604AB40
:100C70009C46D64B0B241E00D54F64440122386895
:100C8000524207A908F036F80028F7D007A95846BD
:100C9000002504F089FA0823220023702721073B4E
:100CA0000095300019F0E0F896200021800001F056
:100CB000FDFA0C2201232270914627212200009583
:100CC000300019F0D1F896200021800001F0EEFAF2
:100CD0000823220023702721073B0095300019F0DC
:100CE000C3F896200021800001F0E0FA18220123C9
:100CF00090462270272122000095300019F0B4F8A8
:100D000096200021800001F0D1FA1C2322002370DC
:100D100027211B3B0095300019F0A6F896200021F2
:100D2000800001F0C3FA42460123227027212200ED
:100D30000095300019F098F896200021800001F00D
:100D4000B5FA8822012322709046272122000095BF
:100D5000300019F089F896200021800001F0A6FAF1
:100D60008C232200237027218B3B0095300019F043
:100D70007BF896200021800001F098FA424601237A
:100D80002270272122000095300019F06DF896207E
:100D90000021800001F08AFA082322002370272115
:100DA000073B0095300019F05FF896200021800085
:100DB00001F07CFA4A460123227027212200009587
:100DC000300019F051F896200021800001F06EFAF1
:100DD0000823220023702721073B0095300019F0DB
:100DE00043F896200021800001F060FA04AB1D7BDF
:100DF000002D77D007AB98465B46049705930123F7
:100E00000F229C462B0093439A46092352461343D4
:100E1000DBB29946092300274A462D016DB22B43C8
:100E2000DBB22270272122000393300001230097B8
:100E3000E04419F019F896200021800001F036FAFC
:100E40000D229346524659460A4301232270272118
:100E500022003000009719F007F89620002180004A
:100E600001F024FA4A460123227027212200300093
:100E7000009718F0F9FF96200021800001F016FA83
:100E8000039B22002370272101233000009718F0D4
:100E9000EBFF96200021800001F008FA5A46154326
:100EA00001232200257027213000009718F0DCFF75
:100EB00096200021800001F0F9F9039B22002370A5
:100EC000272101233000009718F0CEFF9620002143
:100ED000800001F0EBF943461D78002D8FD1059B72
:100EE000049F9B460A2107A819F0E4FA051E00D1C9
:100EF000C4E64378002B00D1C0E6C823237099468E
:100F0000002322009846272100933000013318F077
:100F1000ABFF96200021800001F0C8F9CC2323709C
:100F200043462200272100933000013318F09CFF34
:100F300096200021800001F0B9F94B46237043460A
:100F40002200272100933000013318F08DFF9620F6
:100F50000021800001F0AAF94246082327212370CE
:100F60003000073B0092220018F07EFF96200021FF
:100F7000800001F09BF942460C23272123703000AA
:100F80000B3B0092220018F06FFF9620002180009A
:100F900001F08CF908232370434622002721009397
:100FA0003000013318F060FF96200021800001F02E
:100FB0007DF96B1C6D789846002D00D15EE65B468E
:100FC0000497059306E0C046FCB40110901200207F
:100FD0002C1E002001230F229C462B0093439A468F
:100FE000092352461343DBB29946092300274A4698
:100FF0002D016DB22B43DBB2227027212200039317
:10100000300001230097E04418F02EFF96200021C5
:10101000800001F04BF90D229346524659460A438F
:1010200001232270272122003000009718F01CFFB6
:1010300096200021800001F039F94A4601232270F0
:10104000272122003000009718F00EFF9620002183
:10105000800001F02BF9039B22002370272101233C
:101060003000009718F000FF96200021800001F06A
:101070001DF95A461543012322002570272130000F
:10108000009718F0F1FE96200021800001F00EF983
:10109000039B22002370272101233000009718F0C2
:1010A000E3FE96200021800001F000F943461D7800
:1010B000002D8FD1059B049F9B46DFE5094A8300E5
:1010C0009A1810B514684022544080322240064CD1
:1010D000C000A44663441A60044B9C4660444160CF
:1010E00010BDC04604C0014004D001400040014092
:1010F000074B8000C3181B68C90092000A435A407E
:101100000C231340034A9446604403607047C04672
:1011100004C0014004D001408000002905D0064BE6
:101120009C460223604403607047044B9C460223A4
:1011300060440360F8E7C04604E0014004F0014069
:10114000D0231B061B6830B50500584243412F20B1
:101150005B4283430E48EC08844607202840800009
:10116000814020000B4D3C3063448000A40041517D
:101170001B19002A05D0802292019446634419600D
:1011800030BDC0229201944663441960F8E7C0461E
:101190003041014000400140D023F0B5C6461B0657
:1011A00098461B680C4F9B001600FA5804000D006F
:1011B00000B5104209D1290014430D203200FC5023
:1011C00000F0A2F980BCB846F0BD01F021FC434616
:1011D0001B689B00FA58EEE704E6002010B50400F7
:1011E0000D2000F08BFAD0231B061B6802499B00E0
:1011F0005A58A2435A5010BD04E600200123D022C1
:101200008340120693629361094A83009A18116819
:101210004022514080320A400649C0008C46634457
:101220001A60054B9C460523604443607047C046E6
:1012300004C0014004D00140004001408023DB0590
:101240001868000F7047C0460FB400B5084883B057
:1012500003F022FF049B002B07D005A91800019181
:1012600003F05CFD034803F017FF012003F06EFD5F
:101270001CB5011028D0011010B50148FFF7E4FF9C
:101280002CB50110EFF3108072B6034A1368002BDF
:10129000FCD0BFF35F8F70472C0100D0BFF35F8F8E
:1012A0000022024B1A6080F3108870472C0100D096
:1012B00070B5EFF3108C72B60D4D2B68002BFCD07F
:1012C000BFF35F8F0724CB08C618C05C01230C4016
:1012D000A3401C000440034207D118433070BFF301
:1012E0005F8F2C608CF3108870BD1000FFF7ACFF8F
:1012F0002C0100D0F8B54746CE46884680B5EFF3BE
:10130000108C72B6214D2C68002CFCD0BFF35F8F7F
:101310009A422CD8D4080727055D061901241740E6
:10132000BC402C421FD007210127894609E0D40880
:10133000055D06194C4639001440A1400C002942B5
:1013400011D001329342F2D201204042BFF35F8FAD
:1013500000220E4B1A608CF3108800280FDBC0BCF3
:10136000B946B046F8BD254310003570EEE7BFF32F
:101370005F8F00232B608CF310880120404243468E
:10138000002BECD00898FFF75FFFC0462C0100D07F
:1013900030B5EFF3108C72B60A4C2368002BFCD0EA
:1013A000BFF35F8F072301220B409A40CD08435DB6
:1013B00093434355BFF35F8F002323608CF3108862
:1013C00030BDC0462C0100D0044A1078431CDBB26B
:1013D000172B00D9102313707047C0465C110020F2
:1013E00010B5064B064C82B00100009318221F2353
:1013F0002000FFF77FFF02B010BDC0463CB50110D2
:10140000002600200021044B044ABFF35F8F02C373
:101410009342FAD17047C046000100D0800100D04D
:10142000054B064A1360064A136053609360D3600D
:1014300013615361936170478080808000E400E015
:1014400004E400E01F2318401E3B8340002905D020
:10145000C021044A4900535013607047802201495B
:101460008B50FAE700E100E001228240034B1B6849
:1014700013405A1E9341D8B27047C04600E100E0C5
:1014800001238340014A13607047C04600E200E038
:10149000064B10309B688000C358054A00209B1AF9
:1014A0002F229A424041C0B27047C04600ED00E092
:1014B0006011002070B50D00EFF3108672B60F4A70
:1014C0001368002BFCD0BFF35F8F0D4B10309B686F
:1014D00084001B590B4A934203D09D4201D001F076
:1014E00097FA074B9B681D51BFF35F8FBFF35F8F68
:1014F0000022024B1A6086F3108870BD240100D0D0
:1015000000ED00E0CD010010F0B557464E46DE4636
:101510004546E0B585B0060000911700EFF3108B4B
:1015200072B66A4A1368002BFCD0BFF35F8F0025A8
:10153000674B5D579A46002D00DAA9E06B00654CB9
:1015400001935B199B009846A146C1444B46524605
:101550009B7910361370604BB6009B6899590B1B32
:101560002F2B33D95D4B994200D0ACE0019B424612
:101570009C465B4B6544AD0063535A4B0232A21844
:10158000043B9B1A1B05584A5B0D651913436B807E
:10159000564B0121AB80FF23AB71009BEF71AB6019
:1015A0004B460B4319004C4B9B689951BFF35F8F1F
:1015B000BFF35F8F0022454B1A608BF3108805B094
:1015C000F0BCBB46B246A946A046F0BD01200A00C9
:1015D0008243D3798C46BB4231D8454613004449F7
:1015E0001B1B5B415943090D3D4B63533D4B02357A
:1015F0006519043B5B1B1B053B4D5B0D2B43AA464A
:101600004D466B800425AC465546E044131F4444C8
:101610001B1B1B055B0D1D434B46997100999D805B
:1016200099604946DF71334B01431360BBE75800B3
:10163000C01880002018C179B9422FD902000623B2
:10164000D356002BF3DA02932B4B61460393131D01
:101650009A4604235B429C46E14450464B461B1A83
:101660001B055B0D9C46204B957198466346404692
:1016700003439380019B5A199200039BA418A380F3
:10168000029B1C4AA371009B2260E771A3608AE75A
:1016900001F0BEF9002553465D574FE7908802934D
:1016A0004005131D9A46031561469C464046D444A6
:1016B000634604302018181AE0230005400D1B0271
:1016C00018430390C5E701F0A3F94FE7240100D0C8
:1016D00085FE02206011002000ED00E0CD01001029
:1016E00000A1FFFF9011002000E0FFFF01BDFFFF00
:1016F000AAAA00000148804701BD0000F0B5DE46FF
:1017000057464E464546E0B50C0083B0EFF31088CF
:1017100072B6634A1368002BFCD0BFF35F8F614B36
:1017200061499A68030010339F00D55900938D4298
:1017300043D0A54254D05D4EAA1B2F2A3DD85C4B06
:101740009C461B689A4601231A00994682405346DC
:1017500013401F2201934B46024093409A46802239
:10176000634650469850BFF35F8FEFF305839B4667
:10177000002B37D0009B5B4501D001F049F92A00CE
:101780004B469A439068844208D177E04B005B183F
:101790009B00F3189868844236D01A0006215156EF
:1017A0000029F3DA844255D0019B002B27D0C022B8
:1017B00051463F4B5200995019603A4B9B68DD519E
:1017C000BFF35F8FBFF35F8F0022354B1A6088F342
:1017D000108803B0F0BCBB46B246A946A046F0BD97
:1017E0000D00EAE72A004B469A4390688442D5D11F
:1017F00006201056130000280ADA0D0032E080237C
:1018000051462B4AD150D8E706201856002822DB33
:1018100042001118890074188946A1689960E1791D
:10182000D971062161569971002925DBA488F11A26
:10183000640524154C440919E0240905490D2402C6
:101840002143998013181B4A9B001178F318997152
:101850001070A9E713005946002914D1FF31917186
:101860001549918013490A789A71144A9B1B5B4170
:101870005A43120D0A7097E71149E2E70620105605
:1018800013000028C4DA0F4A0F49D21A083A50024E
:10189000400D014399800D4952080A43DA8083E7DD
:1018A000240100D000ED00E0CD0100106011002007
:1018B00000E100E085FE022001BDFFFFAAAA0000B2
:1018C00001BD00009A11002000F0FFFF00F8FFFFAB
:1018D00010B58308040003202040FF24054AC000FF
:1018E0009446844081409B0063441A68A2430A43A3
:1018F0001A6010BD00E400E070B501240443EFF36A
:101900000581EFF3108C72B6214A1368002BFCD0CE
:10191000BFF35F8F1F4B05001F4AED1A6D416A43ED
:10192000120D1E4D8900AE6852B27658A6421CD0E8
:101930000621595691421CD012215956914222D06B
:101940001E215956914220D02A21595603249142F2
:1019500010D0134B19781A708171BFF35F8F00227A
:101960000B4B1A608CF3108870BDAB680D4C5C504B
:10197000EFE700246100091989005B18FF219971C4
:1019800009499980E5E70124F4E70224F2E7C0461B
:10199000240100D060110020AAAA000000ED00E0A0
:1019A00085FE0220CD01001001BDFFFF1F2110B5F3
:1019B000091A0248FFF7ECFC10BDC04691FE022058
:1019C00010B5084B084C82B001000093002205239B
:1019D0002000FFF78FFC002801DB1F23181A02B03C
:1019E00010BDC04658B5011091FE022070B504002C
:1019F0000E001500FFF7E8FC0100200000F006F8DB
:101A0000A680E580BFF35F8F70BDC046024B9C4649
:101A1000614489000160704740000034F8B5124C01
:101A2000124DAC4212D20126002776422368002BC9
:101A30000DD0FFF7C9FC01002000FFF7E7FF66604B
:101A40002772BFF35F8F0C34AC42EFD3F8BDFFF7C2
:101A5000BBFC01002000FFF7D9FF6660BFF35F8F7A
:101A60000834AC42E2D3F1E7D0170020E0170020A1
:101A700010B50400FFF7A8FC01002000FFF7C6FF27
:101A800001235B426360BFF35F8F10BD10B504009C
:101A9000FFF79AFC01002000FFF7B8FF01235B422B
:101AA000636000232372BFF35F8F10BD10B5040085
:101AB0000120FFF795FC034BC3189B002360BFF385
:101AC0005F8F10BD40000034034B9C466144890089
:101AD0000160BFF35F8F704740000034F0B5DE4611
:101AE00057464E464546E0B583B0EFF305820323E3
:101AF0001340B54A990052580091904601229A40ED
:101B00009346B24B1A60B24B01935B46B1484363B4
:101B1000434608229B5E9946002B3ADA43469B884F
:101B20001BB2002B00DB9DE043469B79002B00D0CD
:101B3000E1E0434608241C5F002C20DB43465A6941
:101B400063001B19DB00D3189D68DC686B1C00D197
:101B500003E1A048009984466144826A0B69AE1A89
:101B60009B1A9E4213D35A46036A1A420FD09948D1
:101B700000F070FC8C4202DCC7D18542C5D940BF61
:101B800003B0F0BCBB46B246A946A046F0BD0D610D
:101B9000EDE7424652695B0092464B44DB009A44B3
:101BA00053469E68DF6800F055FC8F42B6DC00D1DA
:101BB000F8E0002F00DAD9E05246534654691B6919
:101BC000019A934200D1CCE0414652460820085E7B
:101BD0005288000421001043984704000D002300A0
:101BE0002B4300D1C2E0002D00DBDFE030003900E4
:101BF000001BA94153469860D96000229A5E002AD2
:101C000000DA8BE743465D6953009C18E4002C1909
:101C1000A768E4688C4200DD80E702D1874200D9E2
:101C20007CE74646328108360DE08C4200D1C6E0A2
:101C30001E000023F25E002A0ADB53009C18E40019
:101C40002C19A768E4689B18DB00EB188C42ECDDCC
:101C500053461A804B46338043469B881BB2002B69
:101C600000DA61E743461A69EFF3108172B6136830
:101C7000002BFCD0BFF35F8F43469E880123424672
:101C80005B42938036B21369BFF35F8F00221A6004
:101C900081F31088002E00DA46E743465D69083379
:101CA00042469C467700BF19FF00EF19BB686046AB
:101CB00098460823D15E9246FC68002907DA0EE0B8
:101CC000A24246D018000023C15E002906DB4B006B
:101CD0005B18DB00EB18DA68A242F1DD52460680A1
:101CE0000023FE5E3980002EDCDA904643469B7965
:101CF000002B00D11DE70023424693714346464620
:101D00000821595E08364B1C00D138E74746894602
:101D1000556902E006004B1C18D04B005B18DB0035
:101D2000E8180A008C46E95E43881BB2002BF1DA02
:101D300001235B42DC178360C4604A4503D03180D5
:101D40003B8903803A81E1464B1CE6D1B8464C46BC
:101D5000F2E69A684245B5D9C0E7631C00D0F8E6C0
:101D600005E7200023699847002825D153464246BD
:101D70001B8813811269EFF3108372B61168002972
:101D8000FCD0BFF35F8F4246514652880A804246DC
:101D9000494651801269BFF35F8F0021116083F3C0
:101DA0001088BBE6864200D803E7B7E6094800F092
:101DB00051FB001969411DE7656824680FE78742F8
:101DC00000D835E744E7C0469CD300203C7005406E
:101DD000DD1A001000400540074810B50268EFF317
:101DE000108172B61368002BFCD0BFF35F8F06F032
:101DF000F7F90020002110BD28E7002070B52E4C17
:101E00002569002D04D00A212C48FFF7FFFD70BD85
:101E10002B4E0321300000F0F9FAE660FFF7D4FA08
:101E2000284B03229C46D02322701B061B680121ED
:101E30006370254B6044A3600F2380002061022063
:101E4000638063694942A180198002311986473154
:101E50001D83585218315A5275325C3999521832D2
:101E60000131995218320131995218320131995287
:101E7000083518329D520231183299521832013108
:101E8000995218320131995218320131995218324F
:101E9000013199521832013199520C4B0C49DC60D6
:101EA00001303562FFF706FB01210320FFF7CAFA74
:101EB000084B1D60A7E7C046A811002028E70020B6
:101EC0000040054040000034FFFF10009CD300207C
:101ED000DD1A00103860054000487047A811002046
:101EE000F8B5050018200F0001F01EFB041E3ED0BF
:101EF0001821380001F036FB01216061280000F054
:101F000099FAE5600600FFF75FFAD0222670120604
:101F10001268184B62709C460122BBB25242604468
:101F2000800063819B1820612281A2806380002F42
:101F30000BD079006269C919C9000F4B8918138049
:101F4000013318329BB28A42F9D10127B7400B4BBB
:101F5000B20030000A492F62D450FFF7ABFA0121DA
:101F60003000FFF76FFA074B9C4665442F60200056
:101F7000F8BDC04640000034FFFF00009CD30020A5
:101F8000DD1A001038200000124B70B50400984292
:101F90001ED0012205781049AA408C46C368012151
:101FA0001A6263441A602800FFF74CFA0B492800B4
:101FB000FFF7A4FB280000F033FA00212278084B39
:101FC00060699200D15001F0EFFA200001F0ECFAC4
:101FD00070BDC046A811002038300000DD1A001086
:101FE0009CD30020F8B51F0008AB1B780400160036
:101FF000002B08D100F036FA32003B00121A8B4158
:10200000002B00DA53E02269EFF3108072B61368F8
:10201000002BFCD0BFF35F8F0223E15E63694A00AF
:102020005218D2009B18002937DB1A886280226977
:10203000BFF35F8F0025156080F31088069A9E60BD
:10204000DF601A61079A5A615A8801325204520CB1
:10205000101C002A1FD082B2588008041043266941
:10206000EFF3108772B63268002AFCD0BFF35F8F9F
:10207000A2881A80A1802369BFF35F8F00221A60B3
:1020800087F310880B4923788C4601329A40E36825
:1020900063441A60F8BD0120DDE72369BFF35F8F59
:1020A00000221A6080F3108801204042F2E70020ED
:1020B000F0E7C0463C20000070B501000469EFF372
:1020C000108C72B620680028FCD0BFF35F8F02200E
:1020D0000D5E4C6968004019C0002418002D37DBE4
:1020E000208848800869BFF35F8F002606608CF364
:1020F0001088E36063880498013320615B040598CD
:102100005B0CA26060611A1C002B1FD093B22804E4
:10211000628018430A69EFF3108C72B61368002BC3
:10212000FCD0BFF35F8F8B8823808D800B69BFF35A
:102130005F8F00221A608CF310880B7801329A406E
:10214000CB6808498C4663441A6070BD0122DDE704
:102150000B69BFF35F8F00221A608CF31088012097
:102160004042F2E73C20000010B543890A14934234
:102170001ADD53009B184269DB00D3180469EFF3A2
:10218000108C72B62268002AFCD0BFF35F8F5A8889
:10219000090494B2090C8A4208D00369BFF35F8F27
:1021A00000221A608CF31088002010BD80221202D9
:1021B00014435C80012302698371BFF35F8F0021A8
:1021C00011608CF31088044902788C469340C268F1
:1021D000012062441360E8E73C200000407870472B
:1021E000F0B54746CE46040080B50D0096267642EF
:1021F000F71736196F4183B08F4215D812D000F00F
:1022000031F932003B00121A8B41002B16DC002BF7
:1022100040D02000290000F063F903B0C0BCB946EB
:10222000B046F0BD8642EAD90026002700F01AF930
:1022300032003B00121A8B41002BE8DD00F012F94E
:1022400032003B00121A8B41002B0ADB0023019362
:10225000124B3200009312483B00FFF72DFF00287D
:10226000D7DBB846B1460F4F0F4E7B6A984504D86E
:10227000BA6A9145CDD99845CBD13268EFF3108138
:1022800072B61368002BFCD0BFF35F8F300005F0EF
:1022900073FFEAE7002ABCD0D0E7C046D91D001082
:1022A000A81100200040054028E7002070B5040078
:1022B0000D0000F0D7F88023001969411B069942F0
:1022C00002D3012002494042FFF78AFF70BDC04699
:1022D000FFFFFF7F70B5060000F0C4F8FA2204008B
:1022E0000D00002330000021920001F017F8802338
:1022F000001969411B06994202D30120024940425C
:10230000FFF76EFF70BDC046FFFFFF7FF0B5D646FA
:102310004F464646C0B504000D0082B0EFF3058776
:102320008946002F0ED0344900204B6AAB4203D3BC
:102330008A6A0130A24226D302B0E0BCBA46B14656
:10234000A846F0BD2D4B9846DB689A46434650465A
:102350001E7800F07FF80B00514602000436B600EC
:10236000715820008E1A2900801A99418F4211DC81
:102370000ED020BF204A0020536A4B45DCD3926A1E
:102380000130A242D8D25B1B5A1E9341D8B2D3E788
:102390008642EED900F066F822002B00121A8B411B
:1023A000002B1ADB00230193154B220000934046BB
:1023B0002B00FFF781FE011E0FDD0F4B5A6A4A45C5
:1023C00017D39B6AA34212D34046FFF7CDFE0A4AB9
:1023D0000020536A4B45AFD3D1E7074A0020536A28
:1023E0004B45A9D3926A0120A242A5D2CBE74A4528
:1023F000EAD120BFE8E7C04600400540A811002010
:10240000D91D0010004870470040054010B5024A31
:102410000248FEF74DFF10BD74B5011004260020E0
:1024200010B5034B01001800FEF7B2FF10BDC04607
:102430000426002000B5054B83B00093002203233F
:102440000348FEF757FF03B000BDC04698B5011022
:10245000042600200300416A0A00986A596A8A42E9
:10246000FAD17047034B596A0A00986A596A914237
:10247000FAD170470040054070B504000D00174ABE
:10248000536A1900966A536A8B42FAD130001900D8
:1024900024184D41AB4216D813D0104A2B00526A73
:1024A000954203D90D494A6A9A42FCD39A4207D110
:1024B0000A4A02E0516A994202D1916AA142F9D3D3
:1024C00070BDA642E9D9054B5B6A1C005A1CEFD0CF
:1024D000012301246442E5175B42E3E70040054025
:1024E000064A536A9942FCD807D1044B02E05A6A63
:1024F000914202D19A6A8242F9D370470040054066
:10250000F8B5040006200D0000F078F9002844D04A
:10251000374B3849E3185A1E9341802212049446DF
:102520005B429B0D344A9B0563441360334A13603E
:1025300018000A689043FBD12D4B314AE3185942E9
:102540004B4180215B0049000620995200F056F96A
:102550002900C00000F068FB0130C3091ED14027EC
:1025600001226262A362266BF30722D4E36A254B41
:102570000620E51800232B60266300F03FF93900A0
:10258000800000F051FB7023E26A5A400E33134082
:102590002B601D4B23630323A364F8BD1B4A9342A6
:1025A0001ED900231A4A1B4F6262A362266BF307EF
:1025B000DCD5194B144AE3181A60656AA36A062031
:1025C000AD01ED1800F01AF9144900F02DFBAD0231
:1025D0000100280000F028FB0021FFF74DFFC5E7B0
:1025E0004006800E9F011A003F180300B9E7C0465D
:1025F0000080FCBF08C0004000E0004000F0004048
:1026000058E700202C10000001030000FEFF00002E
:10261000FFFF0000C0FF3F00303000004E0E000002
:10262000F8B5DE464E4657464546E0B58B460500B2
:102630000A991800160000F0F7FA0A9B6C001F02B6
:10264000324B64199C46A4006444636881469F42EF
:1026500000D967602B1FDBB29846012B30D9C0230D
:1026600080229B01E31812011A60294BAD005959D1
:102670009A4600291BD17301E026226853401E4070
:10268000802342465B01E3181E60012A30D9802373
:1026900080229B01E31812011A6053464A46676084
:1026A0005A51F0BCBB46B246A946A046F8BD58698F
:1026B00000F0BAFA013043001B18033BFDD2DAE701
:1026C0005B46012BCBD1C02303229B01E3181A6088
:1026D000023AA3681A42FCD07301E0262268AD00DA
:1026E00053401E4080230A4A5B019246E3181E6055
:1026F0005A462168514003220A401A6001225B4673
:102700009A40A3681A42FCD0C1E7C046008000404E
:102710000C260020F0B546464F46D646C0B51F00F1
:10272000344B44009C462418A400644463688846E3
:102730001600FF2B02D880235B006360031FDBB20F
:102740009A46012B30D9C02380229B01E318120145
:102750001A60294B85005959994600291BD17301EC
:10276000E026226853401E40802352465B01E31856
:102770001E60012A30D9802380229B01E3181201B8
:102780001A6080235B0063604B465F51E0BCBA4631
:10279000B146A846F0BD586900F046FA0130430042
:1027A0001B18033BFDD2DAE74346012BCBD1C023F4
:1027B00003229B01E3181A60023AA3681A42FCD074
:1027C0007301E0262268850053401E4080230A4A98
:1027D0005B019146E3181E60424621685140032286
:1027E0000A401A60012342469340A2681342FCD07B
:1027F000C1E7C046008000400C260020014B80004D
:10280000C05870470C260020F8B5040021481E006F
:1028100017000D0000F008FA0100380000F004FA7B
:10282000069B36041B031E432368002B20DB1A4B38
:102830001A49E3185A1E93418022920194465B4242
:102840001B0B174A1B0363441360164A13601F00D7
:102850000A689743FBD1144B2560E2182123A0603E
:1028600013602368002BFCDA0823E6601360F8BDD0
:102870003F2322681340AB42D9D1A3681B051B0D2F
:102880008342D4D1EE22E368D2021340B342CED1C8
:10289000EDE7C046001BB7000040FDBF08C0004088
:1028A00000E0004000F000400430000010B580243B
:1028B0001C4BE4051C6000281AD001231A4C184355
:1028C0001A4BDC611A4C44401C62596298628021A8
:1028D000144BC9051960174817490860E021C9045D
:1028E0001960002A07D18022144B12061A6010BD0D
:1028F0000E4BD861EBE753019B1A9B009A1880237B
:1029000012015B049A4209D213000D490B60074B78
:102910005A608022094BD2051A60E8E7094B1A0079
:10292000F3E7C04600B00540D3C007B000800540C3
:102930002D3FF84FFCFF01000820014000A005409A
:102940000C390020FFFFFF008023024A9B000B434D
:10295000D362704700800540142310B50100188829
:1029600004331B88984710BD162310B50100188842
:1029700002331B88984710BDF8B54746CE4680B550
:102980000F1E19D014239946043304000025012694
:1029900098464B461888434621681B88984701C4CF
:1029A000431E9841013540420640AF42F1D130000C
:1029B000C0BCB946B046F8BD0126F8E7142370B58F
:1029C0000400188804331B880D000549984703004C
:1029D0000020002C01DB0130A04029009847C046B0
:1029E00055420000AA23064A1B0113608D235B0099
:1029F000D3600449044B19605368002BFCDA70471C
:102A00000040024000B0FA00006002407047C0463B
:102A100010B50148FEF718FCACB5011070B5074DB4
:102A2000074EB54209D20024013E761BB60808CDF8
:102A3000984723000134B342F9D170BDB8B20110F8
:102A4000F4B20110054B064A06491A60064A074BC4
:102A50001A6010000B689843FBD1704700E00040FB
:102A6000BFCDFBFE08C00040FE7F3C0000F00040F0
:102A7000044BDB6C002B03D18022034BD2021A6083
:102A80007047C046000011504C201150044A054BBD
:102A90001A60054A1368DB018033FBD17047C046DA
:102AA000FFFFFF0100F0004008C000404022034B40
:102AB0009A675A671A67DA667047C04600F00140A5
:102AC00010B5FEF79FFC10BD70B5044D044CA9680D
:102AD000C022200000F086FDAC6070BD00ED00E07B
:102AE00000000020002310B5294C82B0A367FFF737
:102AF00079FF0122274B1A60636C012BFCD1032262
:102B0000254B1A60224A936B012BFCD101330093B1
:102B10000121224A22480433FFF776FE05230121D2
:102B20000093204A2048FFF76FFE00220221042074
:102B30001E4BFFF7EFFD0022012105201C4BFFF784
:102B4000E9FD0022002107201A4BFFF7E3FD0022D8
:102B500000210820174BFFF7DDFD8023DB000093E9
:102B6000002200210920134BFFF75AFD0022104BD1
:102B700000210620FFF7CEFD0420FFF73FFE0E499F
:102B800000F052F801000020FFF7DEFE02B010BD99
:102B9000008000403CB0004030B00040002F685939
:102BA00000800240008C864700C00240001BB70036
:102BB00040597307006CDC0240420F0001480421B9
:102BC000014B1847C011002079290010014B9B6868
:102BD00018470000C0110020124A936F9B0815D2BD
:102BE0009066D166002905D0FFE7FFE7FFE7516F48
:102BF000106F704704B580210906C21751400028A4
:102C000000D0C84318F0F8FA002104BDF0B5146EE6
:102C1000556E576F166FFFF7E3FF146655665767DB
:102C20001667F0BD000000D0114A936F9B0813D2C5
:102C300010665166002905D0FFE7FFE7FFE7516FF7
:102C4000106F704704B5002801D00020C04318F071
:102C5000D3FA002104BDC046F0B5146E556E576F0F
:102C6000166FFFF7E5FF1466556657671667F0BDE8
:102C7000000000D094464A4A926F9208624601D200
:102C800028E0C046F0B5464E346E756E776F366FED
:102C900000F020F89446424A146655665767166756
:102CA0006246F0BD94463E4A926F9208624601D257
:102CB00054E0C046F0B53A4E346E756E776F366F9D
:102CC00000F04CF89446364A146655665767166706
:102CD0006246F0BD002B24DB11D000293EDA00B59E
:102CE000C943404200D1013100F038F8C9434042A5
:102CF00000D10131DB43524200D1013300BD002A33
:102D0000EBD1002801D1002905D00020C90FC90747
:102D100001D1C043410800B518F04EFA002200234B
:102D200000BD00B500290ADBDB43524200D101336C
:102D300000F014F8C943404200D1013100BDC9433D
:102D4000404200D10131DB43524200D1013300F057
:102D500005F8DB43524200D1013300BD002923D1E5
:102D6000002B18D1002A0CD0BC460D4F38667A666D
:102D700000210023FFE7FFE7FFE77A6F386F674620
:102D80007047002801D00748010000B518F014FA78
:102D90000022002300BD02000B000020002170472C
:102DA000000000D0FFFFFFFF002B00D0BFE0130C9E
:102DB00028D1002AE7D080B4114F39667A66FFE740
:102DC000FFE730B4040C7B6F396F1B0423433B6671
:102DD0007A66FFE7FFE7FFE7C04684B27B6F3D6F8F
:102DE0001B0423433B667A66FFE7FFE7C0460023E8
:102DF0002C042D0C7A6F386F00196941B0BC7047F4
:102E0000000000D0F0B594460025140E01D1120246
:102E10000835140F01D112010435940F01D192002D
:102E20000235D40F01D152000135D40B0134254FA6
:102E30007C66254C3C660E0C93B2FFE7FFE7FFE78C
:102E40003C6F6643360C7703BE467343DF0B5B046F
:102E5000C01AB941130C7343DB18C91ACE08664374
:102E6000360CB64493B273431F0F1B01C01AB9410D
:102E7000130C73431F0B1B05C01AB941860D8F023B
:102E80003E436643360C092D24DB520A7243801AF6
:102E90007703460A6643360C16235B1BDE40DF4091
:102EA000BF1964466643821B704604350633010031
:102EB000D940A840C01900D30131A24206D2002354
:102EC000F0BD0000000000D0FFFFFFFF121B01302B
:102ED000F3D3F1E709277F1BFE406446A2B2724399
:102EE000801A00D20139220C7243130C1204821A88
:102EF00099410B007046043513370100F940A84092
:102F0000801900D30131002B02D1A2420AD2F0BDB8
:102F1000013000D30131121BFAD2013BF8D1A24299
:102F200000D2F0BD013000D30131121BF7E7F0B53C
:102F30001C0C00D080E00CB400251C0A04D11B023C
:102F4000160E3343120208351C0B04D11B01160F59
:102F50003343120104359C0B04D19B00960F33437D
:102F600092000235DC0B02D192185B4101351C0046
:102F7000971864410134464F7C66464C3C660E0C03
:102F8000FFE7FFE7FFE7C0463C6F6643360C770379
:102F9000BE4697B27743C01B00D20139C01B00D296
:102FA00001399FB27743C91BC91B170C77437E04B5
:102FB000FF0B801BB941CE086643360C0C2D33DB6A
:102FC000B644120B1F053A431B0B97B27743C01B45
:102FD00000D201399FB27743C91B170C77433E04D7
:102FE0003F0C801BB941860D8F023E436643292763
:102FF0007F1BFE400C3D7746AF40BF1930BCA2B2EC
:10300000ABB272437343801A9941220C7243130C82
:103010001204801A994102000B000137001BA941DC
:10302000F9D2781E0021F0BD0C277F1BFE407746A9
:103030007F0BAF40FF19E0E700245D1C07D0144F61
:103040007D663966FFE7FFE7FFE7FFE73C6F95B274
:103050009EB265436643401BB141150C1E0C65438F
:10306000664336042F0C3E432D04401BB141994268
:1030700004D202000B0020000021F0BD01D19042DB
:10308000F7D3801A994101349942F2D3F6E7000050
:10309000000000D0FFFFFFFF48404140484018B407
:1030A000134B5B68019308BD18B4114B1B68019367
:1030B00008BD94460F4A926F920805D2624618B432
:1030C0000B4BDB68019308BD0A4AF0B5146E556ED0
:1030D000576F166F6246FFF7F2FF064A1466556691
:1030E00057671667F0BD18B4014B9B68019308BD84
:1030F000C8190020000000D0FFB5504042405040A9
:1031000059404B40594000E0FFB5154F4C00640D4D
:1031100003D0BC4204D10C0314D80020090D0905CA
:103120005C00640D03D0BC4204D11C030AD8002209
:103130001B0D1B0501264B4009D44B4003D58B4288
:1031400000D18242FFBD9942FCD19042FFBD0B43AA
:10315000DB1803431343F5D0C9434918FFBD0000F2
:10316000FF07000000B5FFF7CFFF804100BDC0465C
:1031700000B5FFF7C1FF01D9002000BD012000BD4F
:1031800000B5FFF7B9FF804100BD012040054A00AE
:10319000121804D85A00121801D8002070470120D4
:1031A000704700000021002805D17047C117484032
:1031B000401AFAD0C90713B5064B1B6898470CBCD8
:1031C000441CA2401005120B0349091B09051943B1
:1031D000114310BD24E600201F04000010B54C0070
:1031E000620D8023D218DB00D21A5B057E2A10DD27
:1031F0009E3A13DACC170903490819435242D140C9
:10320000640001341532202A05DAD04008436043B7
:1032100010BD002010BD0846604310BDC80FC01887
:10322000013810BD18B4024B5B6A019308BD000061
:10323000C819002018B4024BDB6F019308BD0000D1
:10324000C819002010B50148FDF7FEFFB8B5011000
:10325000132370B51D78012D19D014DD1D48FFF71B
:1032600083FB06001C48FFF77FFB1C4C80223100CB
:10327000200000F0B7F9022D06D01948FFF76CFBCB
:10328000184B186070BD154C174BA364F5E7174B2E
:10329000124C23606360A360E36023616361A361F8
:1032A000E36123626362A362E36223636363A363F4
:1032B000E36323646364A364E36423656365A365D4
:1032C000E36523666366A366E36623676367A367B4
:1032D000E367D9E75344000053460000C8190020B3
:1032E0004C33000024E60020F1320010453200107B
:1032F00007B5604601880A0A0230DF2AFAD1C9B24E
:10330000820804D3028840880004104300E000686B
:10331000014A5050039007BDC81900205143434350
:10332000C9188C46110C83B24B4310B4040C614392
:1033300092B280B2504362431C041B0C001910BCB3
:1033400059411304120CC0185141614470470000E8
:103350004840414048400E4B5B6818470C4B1B6887
:1033600018470C4A936F9B0802D2094BDB68184739
:10337000F0B5146E556E576F166FFFF7F6FF054ADE
:103380001466556657671667F0BD014B9B68184772
:1033900028E60020000000D007B5484041404840E2
:1033A00001E0C04607B54200120E03D0FF2A03D148
:1033B000420218D8C00DC0054A00120E03D0FF2AE1
:1033C00003D14A020FD8C90DC9050122414005D4D5
:1033D000414001D5814207BD884207BD01434918DC
:1033E00001D0C043001807BD00B5FFF7DBFF8041E7
:1033F00000BDC04600B5FFF7CFFF804100BD491AB0
:10340000002807D108467047C10FC90700D54042C0
:10341000002817D0F44603B40B4B1B68984706BC32
:1034200081409E384042803107D20B0607D04900C8
:10343000490AC0051043084360470130F8E7490ACC
:103440008902F5E77047000024E6002041000A0EDB
:1034500080231B067E2A0BDD9E3A0BDAC117400241
:10346000400818435242D040490001314843704758
:1034700000207047C00FC01801387047C0420DD3FC
:1034800000B540004008002100F00EF8002801D4EB
:10349000404200BD8020000600BD0000014BDB69FA
:1034A0001847000028E60020014B5B6A184700001F
:1034B00028E60020014BDB6F1847000028E60020BB
:1034C00010B50148FDF7C0FE14B40110132310B568
:1034D00010481C78FFF748FA0100012C0AD003DDE0
:1034E00080220D4800F07EF80C48FFF735FA0C4BAF
:1034F000186010BD084C5422200000F073F8220020
:10350000084980322368002B00D1216004349442A2
:10351000F8D1E9E75346000028E600204C330000CC
:1035200024E60020C134001070B504000A4E3000BB
:1035300017F0B2FE200017F053FD0500300017F021
:1035400033FE002D05D0054B2C199C4201D82800D4
:1035500070BD0348FDF778FED0170020000004205E
:10356000D0B50110F8B506000C000C4F380017F06C
:1035700093FE2100300017F091F80500380017F095
:1035800013FE7443002D05D0054B2C199C4201D825
:103590002800F8BD0348FDF757FEC046D0170020AD
:1035A00000000420D0B5011070B50400054D2800BE
:1035B00017F072FE200017F01DFD280017F0F4FD33
:1035C00070BDC046D017002001480421014B1847A8
:1035D000D011002079290010014B1B68184700000A
:1035E000D0110020014B5B6818470000D01100206B
:1035F0007047C046F8B55746DE464E464546E0B5EC
:1036000099460A9B07009A460D9B884693460B9C59
:103610009B073BD10C9B9C423DD21E1B0B9415007B
:103620000C005E442A004B46013521002020B8479B
:10363000B542F7D1A0460B9C002C20D04546361948
:103640005346321B013C185D29004B46B847002CFD
:10365000F6D12B00350098460D9B9B070FD55B4696
:10366000EC1A0C9BA3420AD9464698462A004B46C0
:10367000310020200134B84701354445F6D32800F5
:10368000F0BCBB46B246A946A046F8BD16001500E0
:10369000002CD3D1E0E71600002CCFD11500EEE7C7
:1036A000F0B54F464646D646C0B584B098460EABF8
:1036B0001B7894469946129B0D9C109F119E9A0769
:1036C00025D4002E65D1BC4221D201221A40924657
:1036D000202C00D1E9E00C9A551E302202E0202C6B
:1036E00000D17BE001342A55A742F8D85246002A7F
:1036F0000DD0B4420BD20C9A551E3022202C02D190
:1037000071E0202C2DD001342A55B442F9D1DA06CB
:103710003CD55A052ED4002C28D10F9A102A00D15E
:10372000B6E0022A00D1BCE030220C9C22700124B9
:103730004A46002A65D15A0700D499E02B220C9DF5
:103740002A55013403930C9B62460093029643462C
:103750000194FFF74FFF04B0E0BCBA46B146A8465B
:10376000F0BD2024DA06EDD55A0503D4A74266D071
:10377000B44264D00F9A102A71D0022A57D0202C5C
:10378000E0D02200013430250C9FBD54202CD9D02C
:10379000CEE7012215001D40AA461A4236D04A46FD
:1037A000002A4AD10C321A4247D1BC42A1D2202C65
:1037B00091D1202E17D82024DA06C3D55A051BD460
:1037C000202F01D0202ED5D11F220F9D102D6FD07C
:1037D000022DD8D162250C9FBD54D0E75246002A55
:1037E00079D0202EBDD92024DA06ABD55A0503D4D2
:1037F000202FE9D0202EE7D00F9A102AA2D1202422
:10380000A0E72D220C9D2A5501349BE7BC4200D332
:103810007DE7202C00D05EE7DA06F0D55A05EED41D
:10382000202F62D0202EEAD134001F22CDE7202C99
:1038300000D187E722000134CCE7013EB5E7621EE4
:10384000012CC2D10F9A102A00D06AE79A063BD504
:1038500058220C9C2270283A6270022468E79A066B
:103860000ED4202CCBD078220C9D2A55013486E72B
:103870001A0700D466E720220C9D2A55013461E71F
:10388000202CBCD058250C9A12191570013476E7FB
:103890009A0608D558220C9C2270302262700224AD
:1038A00046E76032F7E77822F5E7002A83D1B3E7ED
:1038B000A21E013C9D0603D478250C9FBD5460E7F1
:1038C00058250C9FBD545CE778220C9C2270483A26
:1038D000627002242CE7DA0600D433E75A058BD451
:1038E000202F00D044E71F226FE73C001F226CE727
:1038F00010B5002800D110BD01F082FBFBE7C046E7
:103900000B0010B5002802D049681B68984710BD0D
:10391000F0B557464E464546DE46E0B599B082467C
:10392000894690460893229A239B10001900FFF7BE
:103930002CFC002800D0CDE0229823990122D94BFD
:103940005242FFF71DFC002800D0C3E022982399C3
:103950000122D54B5242FFF705FC002800D0B9E008
:103960002298239900220023FFF7FCFB002800D0B7
:10397000F1E1229E239F8023269ADB001A400D92BC
:10398000269A1A4201D1062324938023269A1B01EA
:103990001A403B0093460996334300D0B3E0002A17
:1039A00000D0C2E1002300240A930B9400230425D5
:1039B0000993259B0024AB4200D95C1B0223269A65
:1039C0001A400C92269A134203D06B426B415B4221
:1039D0001C40099B002B07D00A9A0B9B3000390032
:1039E000FFF767FB06000F002298239900220023AF
:1039F000FFF7B8FB002803D0802109067B181F00C1
:103A0000269AAA4B009601971340089E0493249B84
:103A100003940293424633004946504600F0AAF907
:103A20000400002D67D02020269A4946024013004A
:103A30005A4253415B42621C18400A9233002200F2
:103A40004530D047099A6F1ED317D4185C40D30F66
:103A50009B46002501E0202D13D008AA94461F2381
:103A6000200063440A2101355E19FFF7DDF830318B
:103A7000317020000A21FFF7D7F826000400092E34
:103A8000E9D805230693002304930A3303935B4686
:103A9000089E029310AB0A9A0093494633005046A1
:103AA00005970195FFF7FCFD0C9A0400002A22D02F
:103AB0004246851A259AAA421DD9B0465746160095
:103AC00022004346494620200135B8470134AE4222
:103AD000F6D810E0269B42460493259B4946039363
:103AE000249B50460293229B239C00930194089BA5
:103AF00000F040F90400200019B0F0BCBB46B2460B
:103B0000A946A046F0BD6A4B78009C46400D604433
:103B1000FFF74CFB674A684BFFF7E5FA674A684BCB
:103B2000FFF7C2FA674A3B031B0B1A4304000D0060
:103B300009981100644B0022FFF7B1FA634A644B05
:103B4000FFF7D1FA02000B0020002900FFF7ACFAC2
:103B5000FFF744FB0990FFF729FB5E4A5E4B040028
:103B60000D00FFF7C0FA00225C4BFFF79DFAFFF74C
:103B700035FB5B4A5B4B29000C902000FFF7B3FA42
:103B800004000C980D00FFF711FB574A574BFFF745
:103B9000AAFA02000B0020002900FFF780FA0400B7
:103BA0000D0002000B000A940B95FFF79CFA04002D
:103BB0000D000A980B9902000B00FFF775FA00221E
:103BC0000E900F914A4B20002900FFF772FA002255
:103BD000484BFFF769FA02000B0020002900FFF7AD
:103BE00068FA0022444BFFF75FFA02000B00200046
:103BF0002900FFF75EFA0A9A0B9B0D008021040052
:103C0000C9050020FFF74BFA02000B002000290035
:103C1000FFF74AFA02000B000E980F99FFF749FAD6
:103C20000022284BFFF740FA344B0C9C9C4664441E
:103C300023050022FFF757FA04000D0002000B00D5
:103C4000300039000A940B95FFF78CFA00285DD1FB
:103C500023002A00C625099963318D42AD4159469A
:103C60006D420435002900D1A3E6134363D0300030
:103C70003900234A234BFFF77BFA002807D00022A4
:103C800030003900204BFFF76DFA002853D1249BF8
:103C9000002B00D18DE60D9B5A1E9341249AD31A16
:103CA000249386E6FFFFEF7FFFFFEFFFFFF7FFFFA5
:103CB00001FCFFFFFB799F501344D33FB3C8608BD7
:103CC000288AC63F0000F03F0000F83F61436F6361
:103CD000A787D23F71A379094F930A400000E03FC4
:103CE0001655B5BBB16B0240EF39FAFE422EE63FE6
:103CF00000002C400000244000001840FF0300009A
:103D00002D431CEBE2361A3F80842E41099B002292
:103D1000013B09932000164B2900FFF7CAF90A005E
:103D2000010003000A910B9294E7002300240A93F8
:103D30000B9400230993249A099B9A4214DDD31A09
:103D4000013B24938023269ADB001A43002300259D
:103D5000269209932DE6802212069446229B1E008D
:103D6000239B63441F0006E600232493EAE7C04632
:103D700000002440F0B54546DE464E465746E0B5C5
:103D800095B08B46904699461E9A1F9B0A90190043
:103D90001000209DFFF7F9F9002800D0B0E11E982F
:103DA0001F990122C74B5242FFF7DCF9002800D0CF
:103DB00037E11E981F990122C34B5242FFF7E0F9E9
:103DC000002800D0A7E01E981F990022BF4BFFF7E4
:103DD000D7F9002800D088E01E981F990022BC4B1C
:103DE000FFF7C0F9002800D07FE01E981F9900223D
:103DF0000023FFF7B7F9002800D0FAE000230B9367
:103E00008023229C229ADB001C401A4200D102E14E
:103E1000092D00D87CE106A98C462C00172200232E
:103E20003021093C62440133D154EF1A202B00D1D8
:103E300032E1A342F7D10022A44B069207931E98C9
:103E40001F99FFF7CBF90500FFF7B0F902000B004F
:103E50001E981F99FFF723F9069A079BFFF743F96E
:103E600008900991FFF7DEF90600FFF79BF90200C1
:103E70000B0008980999FFF712F90022954B08905A
:103E80000991FFF77DF9002800D1D2E0013630001A
:103E9000FFF788F9069A079BFFF76AF9002801D017
:103EA00000260135AA46002F00D098E02800FFF731
:103EB0007DF902000B001E981F99FFF7F0F8854B63
:103EC000002206000F00FFF74DF90CAB9A460028C0
:103ED00045D10022300039007E4BFFF751F9002810
:103EE0003DD1EB073BD5013539E0229B4246049397
:103EF000219B594603930A981E9B1F9C0295009391
:103F000001944B46FFF704FD15B0F0BCBB46B2462A
:103F1000A946A046F0BD229B5B0767D403226E4BE7
:103F200022990192039121990291009342464B46B6
:103F300059460A98FFF75EFBE6E706AA9446172360
:103F4000280063440A2101341E19FEF745FE303172
:103F5000280031700A21FEF73FFE051E76D0202C86
:103F6000EBD10323229A1340012B1DD1219B002B5F
:103F70001AD00B9B002B00D0BBE0229A0C331342CB
:103F800000D0B6E0219BA34200D887E006AB9C4658
:103F900017223023624404E02199013413558C42E6
:103FA00059D0202CF8D12024229B01940393219BEB
:103FB00002935346B9E706AA944617230A2163449D
:103FC000300001341D19FEF72FFE3031297030000A
:103FD0000A21013FFEF728FE092E46D90600202CB3
:103FE000E9D155460CAB20249A46B8E704223B4B56
:103FF00096E71E9A1F9B00200021FFF750F801232F
:104000000B938023229C229ADB001E901F911C4060
:104010001A4200D0FCE60022314B06270692079395
:104020000DE7229B0393219B0293042301932D4BC5
:104030007BE7002208980999264BFFF793F80028A0
:1040400000D02FE7002E4FD101362BE70323229A11
:104050001340012B66D0202CA6D00B9B002B1FD029
:104060002D235246135501349EE75546202CB9D0D6
:1040700030233A19002F08D0172006A90134091857
:104080000B55202CAED09442F6D10CAB9A462E2381
:1040900052461355013462E72024CCE6202C83D00D
:1040A000229B5B0708D4229B1B0700D47CE72023BC
:1040B00052461355013477E72B23524613550134EA
:1040C00072E7C046FFFFEFFFFFFFEF7F65CDCD41F9
:1040D00065CDCDC10000E03F28B6011020B601102B
:1040E00080842E4130B60110F30700D4DAE60136A1
:1040F000D8E6219B013B2193A34200D946E7AAE7DA
:10410000229B0393219B029303230193074B0CE70C
:10411000074BEA009B185C681B682F000693079406
:1041200000248CE6219B002B95D022E72CB60110B1
:10413000A8D30110F0B55746DE464E464546E0B5D9
:10414000A5B01F002E9B91460D93CA4ACA4B8246CA
:104150008B461A60002900D129E20023387898465E
:10416000002800D12BE2C54B44460C93C44B554666
:104170004E460E930AE0631C9846220033005946CF
:10418000A84744463878002800D187E00137252821
:10419000F1D108239A46043B9946023B9846013BDD
:1041A00000229C460B943878791C0300203BDBB23C
:1041B000102B03D80C9C9B00E3589F460300303B18
:1041C0000B9C0B92092B3AD9002398462A2800D140
:1041D000DDE000239A462E284BD00300683BDBB27B
:1041E000122B1ED80E9A9B00D3589F4663460F0091
:1041F0001A43D8E743460F001A43D4E74B460F0053
:104200001A43D0E710230F001A43CCE753460F00A0
:104210001A43C8E780235B000B9A78781A430B9205
:1042200001310F0067284FD82428A4D90300253B6B
:10423000DBB2422B9FD893499B00CB589F4600236B
:1042400098460B9B47469C4600E00131BB00DB19BA
:104250005B001F180878303F0300303B092BF4D96E
:1042600063460B930023B8469A460F0001312E286F
:10427000B3D180200B9AC00002430B9230225242ED
:10428000944678780B0084446246092A00D8AAE153
:104290002A2800D1B9E10F0001319EE7A046AA46C5
:1042A000B146C84503D301235B424B4498464B4675
:1042B000424659460020D047200025B0F0BCBB46FE
:1042C000B246A946A046F0BD01006939C9B20F291E
:1042D00000D950E701238B409C466B4B99466346BF
:1042E0004A4613400F9362464B461A4200D068E19B
:1042F0000A2956D0072900D03DE70D9B02CB9846EE
:10430000002900D092E10B9B10211A008A43100073
:1043100011310843814680201A00C000024011007C
:1043200003421CD114AB9C461F220F2362440D95FF
:104330009C4615000F9B0B9402E0202B0CD0110023
:1043400064460C4020003730092C00D80738013370
:10435000E8540A090F29F0D80B9C0D9D0F934B468A
:1043600008220693534605920832039200220493D2
:104370000F9B029201931CAB22000093594633001D
:104380002800FFF78DF9434604000D93FAE60D9BD4
:1043900004CB9046002A79DB78780D930F00013129
:1043A00017E70D9B02CB14930B789C4618005346DD
:1043B000002B00D134E1002815D05346013B0133D6
:1043C00099460D940B9C89444A460B00A14601E096
:1043D000934203D05C780133002CF9D14A465B1A32
:1043E0000D9C0B920F938023DB0099460B9A134090
:1043F0000D934B461A4204D00F9B534501D95346A7
:104400000F93022399460B9A13400B934B4613428A
:1044100000D1F5E16346002B00D1D6E10D9B002BC6
:1044200000D182E10B1BD14631009A463B00A144EA
:104430002E005F464D4622009B46894609E04B46CA
:104440003900541CB0475346185D002800D192E152
:1044500022009542F3D14B465A46A946BB46350049
:1044600017001E004C460B9B002B00D0ADE1149BA7
:104470000D9387E635410010043900200CD201105D
:1044800050D201109CD20110419000000B9A2838A4
:1044900002430B9242465242787890460F000D93A9
:1044A000013196E678786C2800D15DE180230B9A83
:1044B0005B001A430B920131B3E680239B00ABE60D
:1044C0007878682800D148E180230B9A01311A439B
:1044D0000B92A6E6672800D1B2E0472800D11AE186
:1044E000452800D11CE10B9A0721049242460D9BFE
:1044F0000392073352468B43190002920CC92800DD
:10450000009201930D91220033005946FFF700FA03
:10451000040037E6462800D18DE00B9A072104926B
:1045200042460D9B0392073352468B431900029279
:104530000CC92800009201930D91220033005946C6
:10454000FFF718FC04001DE6631C984622003300A8
:1045500059462520A847444614E60D9B04330F9383
:10456000631C99460B9B9A0700D40AE10D9B22001D
:10457000187859463300A84743464444012B00D8D5
:104580006FE1B0462E0025004C46B9465F4622003A
:104590004346013439002020B047AC42F7D12C000B
:1045A000BB4635004F4646460F9B0D93EAE5D64B7A
:1045B00038789A4600239846002800D0D3E5002496
:1045C0006FE66F2842D000D8FDE11023782800D193
:1045D0009BE00B9A9A430B920A239C460023149368
:1045E0000A330F9338E057460B9AB900C9194900AE
:1045F00001330F181878303F010030390929F4D9F8
:10460000BA460B921F00591CE7E50D9BB87804CB06
:104610000237D143C9170A4092460D93791CDCE555
:10462000002800D1DFE602235B42C8E621200B9A76
:104630000243914676E620230B9A1A430B926CE7CD
:1046400080230B9A1B011A430B924CE708239C46CC
:104650000023149308330F930B9880230200DB0090
:104660001A4011000200184200D080E00C239A4347
:104670001000802302009B001A400B92184200D0C9
:10468000F1E0802302005B001A4091460D9A04324B
:104690001492184200D0C3E2430600D5D7E00306C7
:1046A00000D421E30D9B1B880993002B00D02DE142
:1046B00010339843002900D128E10023994643464E
:1046C0000593534604930F9B069003930023029394
:1046D0004B4601931CAB220000935946330028003F
:1046E000FEF7DEFF0400C2E6582809D0622800D099
:1046F000E3E202239C460023149302330F93ABE7BB
:1047000020230B9A1A430B92103B9C4600231493D0
:1047100010330F93A0E780230B9A1B011A430B92CF
:1047200020230B9A1A430B92DDE60B1B9A460F9B34
:1047300099463B0037005E469B4622003B00310015
:10474000A84753460134185D0028F6D14B460F9315
:104750005B46B3463E001F0085E6C0230B9AB8783F
:104760001A430B92F91C5CE5C0239B00F6E70D236E
:104770009A4310007DE75B463500BB464E461F005E
:1047800071E64346012B66D9631E434432002E0076
:104790001D003B00A2465F4691469B4622004B46C9
:1047A000013439002020B047AC42F7D15B463500D8
:1047B000BB464E46A14654461F000D9B4A461878FC
:1047C000594633004444A847EEE60F9BA14698455E
:1047D00000D84CE64444E41AB0462E0025004C466E
:1047E000B9465F4622004346013439002020B047D5
:1047F000AC42F7D12C00BB4635004F46464636E664
:104800000F98804500D873E24346E218131A32002D
:104810002E001D003B0091465F469B460F912200F3
:104820004B46013439002020B047AC42F7D15B46FB
:10483000BB461F0043460F9901330F930B78350099
:104840009C464E466046002800D0E7E50FE60D9BEB
:104850001B78099329E70D9B2200187859463300ED
:10486000A8474C46A0E60D9AFA3BFF3B07329A4315
:104870000133994691444B460D9313685268159243
:104880001A4306D11032904300220992002900D029
:1048900083E06122810600D54122D2B20A9214AA95
:1048A00091460A9A00210A3A0B92424617925246C2
:1048B00018925A46B24609911E001F31149B494472
:1048C000BB4616941A950024674698468946159D5E
:1048D00019901B920AE03032D2B24B4601341A557D
:1048E000A8454CD0202C4CD006000D003A000023E7
:1048F00030002900FEF7D6F9D2B2092AEBD90B9B7A
:104900009C466244D2B2E8E7F1350010612382068A
:1049100000D54123DBB20A3B0B93434614A91F2267
:104920008C46159353466244B2460D9417974C46F5
:104930008046A9461700099D0F9E169308E0303364
:10494000DBB201343B55B5420ED3202C0CD0050010
:1049500031002800FEF768F9CBB20929EFD90B9A8C
:1049600094466344DBB2ECE7159B40469846169BA1
:104970004D465646A1469A460D9C179F9FE6B74264
:10498000B0D9179B56469846189B5F469A461B9B84
:1049900009949B46169C19981A9D434605935346C5
:1049A00004930F9B0690039300230293099B0193AA
:1049B0001CAB22000093594633002800FEF770FE1E
:1049C0000400FFF7DFFB10230B9A9A430F9269282C
:1049D00000D091E10B9980230A00DB001A401000FF
:1049E0000A00194203D0112118008A430F920F9A2E
:1049F000802311009B0019408C461A425BD1802312
:104A000011005B00194089460D9904310B911A423F
:104A100000D0B2E013005B0600D4EDE00D9B1B78E4
:104A20001A00D90F0D91002B00D1A3E0100014AA99
:104A3000944642461F23159252466344A846BA46FE
:104A40004D461494B14604001F00169201E0202D3B
:104A50000FD020000A21FEF7E7F801357E1930312A
:104A6000317020000A21FEF7DFF826000400092E2D
:104A7000EDD8159B4E46A94645469846169B574687
:104A80009A46149C0F9B0693434605935346049302
:104A90000A2303930D9B02934B4601931CAB220008
:104AA0000093594633002800FEF7FAFD0B9B0400E3
:104AB0000D93FFF767FB07220D9B073393430132EA
:104AC00094469C4462460D920CCBD90F0B91110079
:104AD000194300D19BE0D9171391129151401091C5
:104AE00013995940119110981199129A139B801A99
:104AF00099411090119114AA9446424600231592B0
:104B000052469946169232001F336344A8464E46D9
:104B1000BA4614941F00109C119D914601E0202E6E
:104B200010D0200029000A220023FEF7BBF801362E
:104B300030322B00BA550D0022000400002BEED1BC
:104B4000092AECD8159B10941195454698464B467A
:104B5000169AB14657461E009246149C0F9B069328
:104B600043460593534604930A2303930B9B0293F6
:104B70004B461CE7002885D159E70D9B1B68DA0FCF
:104B80001100002B00D1A6E0DA179818504014AAA3
:104B900091461F2342464B44A8460D9416970400A5
:104BA0006546B1461F001491159201E0202D0FD0EB
:104BB00020000A21FEF738F801357E1930313170B6
:104BC00020000A21FEF730F826000400092EEDD857
:104BD000159BAC4645469846149B4E4619000D9CC5
:104BE000169F0F9B029106934346059353460493E9
:104BF0000A230393634650E713001B066ED50D9BF3
:104C000000229B5ED9175A184A4092B209E7002346
:104C100099460028A2D100220023109211936AE73E
:104C20000D9B1B689946002B03D110339843002934
:104C300038D16123820600D54123DBB20A3B0D93B4
:104C400043461693534614A91F228C4617932B00F4
:104C500062444D46B246159418978046170099460F
:104C60000B9C0F9E08E03033DBB201343B55B5425C
:104C70000ED3202C0CD0050031002800FDF7D4FF06
:104C8000CBB20929EFD90D9A94466344DBB2ECE725
:104C9000169B40469846179B56464D469A460B949F
:104CA000189F159C43460593534604930F9B06900B
:104CB0000393002302930B9B0BE50B9980230A00BF
:104CC000DB001A4010000A00194200D08BE61023C6
:104CD0009A430F928BE6002883D158E70D9B1B68FF
:104CE000D9175A184A409CE60D9B1B680993DCE4CF
:104CF000030001330F93A5E50B926DE400B585B079
:104D00000391012102900093034813004A4202A933
:104D1000FFF710FA05B000BD0139001010B5094ABF
:104D20000300146884B0002C08D0012200910648CA
:104D3000524203A9A047012004B010BD00F0ACF915
:104D40000020F9E704390020F138001000BEFDE72B
:104D5000094A03001068002805D00849C3188B428F
:104D600007D81360704706480449C31810608B4287
:104D7000F7D901204042F5E7D83400200000042094
:104D800094FE022010B5FFF7E1FFC04670B5FDF7B5
:104D900045FE074D074EB54209D20024013E761B61
:104DA000B60808CD984723000134B342F9D170BD4D
:104DB000F4B2011004B30110030010B50800110093
:104DC0001B68984710BDC046F0B5C64600B5437D88
:104DD00007000D001600002B38D0002A2EDD002120
:104DE0006A1E90466A5C037D4C1C00200A2A0CD087
:104DF000A64216D043461B5D21000D3B5A4253414B
:104E00006A5CDBB24C1C0A2AF2D1002BF0D188423A
:104E100017DB022110483B689847A64207D02000C4
:104E2000E8E7864203DD311A3B6828189847AD1938
:104E3000013D2B780D3B5A4253413B7580BCB8462F
:104E4000F0BD091A3B6828189847E2E7036811008B
:104E500028009847F2E7C046F8D30110F0B5C646DF
:104E60000B6806000C0000B5802B06D05A1C22608F
:104E7000E418267180BCB846F0BD0F4B1D68002DAC
:104E800016D00B1D98460D4F02E02D69002D0FD056
:104E90002B68002BF9D03B68002B01D0AB42F4D13A
:104EA000280041462268FFF78FFF2D69002DEFD1C2
:104EB00001220023DBE7C046CC340020D43400209C
:104EC000F0B5DE4657464E464546E0B585B017007C
:104ED0001C0006000D00FDF7C5FA0023314A121828
:104EE0004B41802109068B4202D301222E4B5242B4
:104EF0002E4908008A4616F0A7F901906B1C03D1D1
:104F0000300016F09BF80500002C26D0284B984660
:104F1000284B1C68002C15D0002F21D1264F02E011
:104F20002469002C0ED02368002BF9D03B68002B9D
:104F300001D09C42F4D120002A003100C0472469EE
:104F4000002CF0D1019B002B28D1280005B0F0BC2B
:104F5000BB46B246A946A046F0BD184B9846D7E7D7
:104F6000154B994602ABDF1D0A239B4602E02469DC
:104F7000002CE7D02368002BF9D04B461B68002B90
:104F800001D0A342F3D12A0031002000C0475B4684
:104F90000122390020003B70C047E8E7504616F078
:104FA00003F9D2E740420F00FFFFFF7FD817002030
:104FB000C94D0010CC340020D4340020B94D00106D
:104FC0000A4A1368002B05D10CE01A001B69103245
:104FD000002B07D09842F8D1002902D10369136051
:104FE000016170470029FCD01060FAE7CC34002042
:104FF00010B500F0B3F900F0FBFB012010BDC04676
:10500000F0B5CE46474680B583B06B460600DD1D41
:105010002870FDF727FA00231A4A12184B41802105
:1050200009068B4202D30122174B5242174908004E
:10503000884616F009F9164B81461C68002C14D0DE
:10504000144F02E02469002C0FD02368002BF9D004
:105050003B68002B01D09C42F4D1200001222900A2
:10506000FFF7B2FE2469002CEFD14B46002B05D18F
:10507000300003B0C0BCB946B046F0BD404616F0A3
:1050800093F8F5E740420F00FFFFFF7FD81700209D
:10509000CC340020D434002070B5040015F0CEFFCD
:1050A00001230100050001222000FFF709FF084B42
:1050B0001C68002C06D06368002B05D09847246933
:1050C000002CF8D1280070BD2469002CF3D1F9E739
:1050D000CC340020F0B5CE46474680B5A3B00400DE
:1050E0000D00FDF7BFF90023294A12184B4180211A
:1050F00009068B4202D30122264B5242264F38002A
:1051000016F0A2F800230600019322002B0023488A
:1051100001A9FFF7F3FD019B8046002B14D1204B22
:105120001C68002C06D06368002B0BD098472469BC
:10513000002CF8D1002E25D1404623B0C0BCB94682
:10514000B046F0BD2469ECE7154B1D689946002D6B
:105150001CD0144C02E02D69002D0FD02B68002BC1
:10516000F9D02368002B01D0AB42F4D12800019A7A
:1051700002A9FFF729FE2D69002DEFD14B460195BD
:105180001C68CEE7380016F00FF8D5E70195D1E797
:1051900040420F00FFFFFF7FD81700205D4E001038
:1051A000CC340020D43400200FB400B583B004A95F
:1051B00001C90191FFF78EFF03B008BC04B0184786
:1051C000F0B5002915DD0E4B0D271A680D4B0E4C5E
:1051D000D3185D426B41451820215B001E5F0478A7
:1051E000A64207D093691942FCD101301460A8424D
:1051F000F5D1F0BD93691942FCD11760F2E7C046C2
:105200005CE700200080FCBF58E70020204B70B511
:1052100004000D1E1E682ADD002010211D4B013CDC
:105220001A689369194214D1013093691942FCD16B
:10523000136823548542F4D1002E08D05023936381
:10524000516B183B0B4014498C4662441360280094
:105250000CE0002E08D050239363516B183B0B4099
:105260000D498C466244136000280DD070BD002E9D
:105270000AD05022074B1B689A63596B183A0A40B0
:1052800005498C4663441A6003204042EEE7C0465D
:10529000F02500205CE7002034100000064B10B51C
:1052A0001B68002B06D00021044A12689163044A4F
:1052B0001068984710BDC046F02500205CE700202C
:1052C000F82500200822034B19688B691A42FCD18B
:1052D0007047C0465CE70020F8B51A4F1A4B3A6891
:1052E0000500D31858424341184E14331C0033684C
:1052F000002D02D0002B0FD0F8BD002BFCD00021D8
:1053000020009563FCF79EF820001149FCF7F6F9A0
:10531000104B35601D60EFE70E4B200019600C4903
:105320003560FCF7C7F801212000FCF78BF850220C
:105330003B689A63596B183A0A4007498C466344A4
:105340001A60D9E75CE700200080FCBFF025002050
:105350009D520010F8250020341000000D4B10B5B0
:105360001B780D4B0D4C1B780D4B02211B780D4B00
:1053700010202360FBF7A2FE02211120FBF79EFE06
:10538000E12120684902FDF7BBF801210648FFF73B
:1053900017FE10BD8C4F0510884F05105CE70020EC
:1053A000844F051000400340E01100207047C046C4
:1053B0000022014B1A70704786FE02204B790020B4
:1053C000FF2B0BD18B79002B08D1CB79012B05D189
:1053D000082A03D9024B8A7809301A707047C046F0
:1053E00086FE02200120704710B5012901D001205E
:1053F00010BD13495379107909781B02034300202B
:105400009942F5D15378012B08D0022BF0D100201E
:1054100064220021FDF74AFA0120E9E7D378917868
:105420001B021943DB0507D54A0A100001231A4065
:105430007E331940FDF7C2FA01204A0A4042F5E7DF
:1054400086FE022000487047E0D4011070B50500C8
:1054500014000120012909D153780020012B05D126
:10546000637912791B021343072B00D070BD210012
:105470002800024A9F3301F067FAF7E738D4011099
:10548000012303700048704718D401104B780A7844
:105490001B0213438A7810B512041A43CB781B06FB
:1054A00013439622D200934200D010BD0022012067
:1054B00011004042FDF782FA024B1860024B19605E
:1054C0007047C046F4250020FC25002010B5024B93
:1054D0001878FBF7D5FF10BD87FE0220154B70B57D
:1054E0001A68002A22D0EFF3108172B610680028E3
:1054F000FCD0BFF35F8F00200F4A596010701B680B
:10550000BFF35F8F186081F31088002400250B4ED5
:105510003078FBF7A9FF002804D1002400252900DA
:10552000200070BD3078FBF7ABFFF8E7FA240025C8
:10553000A400ECE780D3002089FE022087FE022031
:1055400070B5040000200E0001F01EFB002836D0CC
:10555000002001F02FFB002831D0FCF783FF00234F
:10556000184A12184B41802109068B4216D2164D5B
:10557000280015F069FE002821D0002001F004FB6E
:1055800000280FD101200021404200F011FD03242A
:105590006442280015F008FE200070BD01220B4B6C
:1055A0005242E4E7002001F005FB0028EAD0210088
:1055B0003200002001F008FB041EEAD1E7E70324D3
:1055C0006442E9E740420F002CE70020FFFFFF7F25
:1055D00010B5FCF747FF00230E4A12184B418021FB
:1055E00009068B4202D301220B4B52420B4C200086
:1055F00015F02AFE00280CD001200021404200F0C6
:10560000D7FC002001F02AFB0028F5D1200015F07E
:10561000CBFD10BD40420F00FFFFFF7F2CE70020B5
:10562000F8B5DE46574680B505000C00FCF71AFFBA
:105630000023374A12184B41802109068B4202D3BE
:105640000122344B5242344908008A4615F0FCFDD1
:10565000002803D1C0BCBB46B246F8BD002001F013
:1056600093FA00284AD00026002C43DD2B4B9B46A2
:1056700014E0A919002001F02BFB070001200021F4
:10568000404200F095FC002001F0E8FAFCF7EAFE49
:10569000224BF61918605960B4422BDD002001F04E
:1056A00037FBA71B0200B84200DD3A00002AE0D118
:1056B00001200021404200F07BFC002001F0CEFAE6
:1056C000002001F061FA002814D0002001F020FB36
:1056D0000028E1D1FCF7C6FE5B460F001A685B6844
:1056E000002184460E4812184B419F4202D8D3D164
:1056F0009445D1D9504615F057FDABE70020002165
:10570000064B18605960504615F04EFDA2E7C046A2
:1057100040420F00FFFFFF7F2CE70020B819002058
:1057200020A1070030B52B4C85B00021200015F0DA
:105730007BFD00281CD1284B1A68002A16D0EFF3F5
:10574000108172B610680028FCD0BFF35F8F01246F
:105750002248596002781B68D2B20470BFF35F8F91
:105760000020186081F31088002A17D005B030BDE2
:1057700001200021404200F01BFC002001F01AFA39
:105780000500200015F010FD002DEFD0144B1B6814
:10579000002BEBD0134A10689847E7E7FCF79CFB17
:1057A0000400FCF75FFEFA220023920012184B411E
:1057B000802109068B4202D301220B4B5242012168
:1057C000029100210191094920000091FCF70AFC97
:1057D000CCE7C0462CE7002080D3002089FE0220C1
:1057E000F4250020FC250020FFFFFF7FDD54001082
:1057F000D02310B51B0684B01C68FCF76DFBFCF7CA
:10580000EDFCA04202D0002004B010BD2A4B0021C4
:1058100000201B7801F078FD28480368002B47D052
:105820000120FCF7CDF8FF23254C264920701840B5
:10583000FBF740FE20780121FBF704FE0520FBF773
:1058400027FE002826D1082200211F48FDF7C4FEAC
:10585000FCF742FB0400FCF705FEFA22002392004D
:1058600012184B41802109068B4202D30122174BAB
:10587000524201210291002101911549200000911D
:10588000FCF7B0FB0028BEDB12480121FFF798FBB4
:105890000120B9E70120FBF7A3FD0B4B0100180025
:1058A000FCF712F9002205200B49FBF72DFEEBE770
:1058B000FCF7DEF8B4E7C046904F05102CE7002057
:1058C00087FE02202557001080D30020FFFFFF7FB6
:1058D000DD540010F8110020CD540010004870472E
:1058E0007CD501100048704728D5011010B5040080
:1058F00017480378002B20D0002C06D1154B1648F2
:105900004380063BFF3B038010BD052C19D8134B89
:10591000A400E05812490123013804E001330A8051
:105920000231142B0FD0C25C002AF7D1C022DBB2A7
:105930005B00920008481343E5E7112100F022F8CC
:10594000DAE70020E0E7CA2303489B00DBE7C04614
:105950000CE8022009040000E42F002010D50110FB
:10596000E62F002010B5024800F0E0F810BDC04658
:1059700018E6002010B508220149FDF733FE10BDDE
:1059800018E6002030B54B1E012900D1A7E0664A79
:1059900011780D092C0030349F2900D9A2E0047041
:1059A000012B00D1BEE00F21147821400C003034CF
:1059B000092900D998E04470022B00D1B2E0547854
:1059C0002509290030319F2C00D990E08170032BEC
:1059D00000D1A7E00F2121400C003034092900D963
:1059E00087E0C470042B00D19CE09478250929003D
:1059F00030319F2C00D97FE00171052B00D191E05F
:105A00000F2121400C003034092900D976E044717F
:105A1000062B00D186E0D4782509290030319F2C4F
:105A200000D96EE08171072B00D17BE00F2121406E
:105A30000C003034092966D8C471082B00D171E0FC
:105A400014792509290030319F2C5FD80172092B68
:105A500068D00F2121400C003034092958D84472F5
:105A60000A2B5FD054792509290030319F2C52D858
:105A700081720B2B56D00F2121400C0030340929A4
:105A80004BD8C4720C2B4DD09479250929003031A4
:105A90009F2C00D9073101730D2B43D00F212140DA
:105AA0000C003034092901D937310C0044730E2B16
:105AB00038D0D1790C09220030329F2900D9073221
:105AC00082730F2B2ED00F220A4011003731092A82
:105AD00001D830321100C173102B23D010300023B5
